:02000000EB28EB
:1000080080312000111C0F2863309700C030960003
:0A001800A20A0319A30A111009003F
:0A0022001D30FD00FD0B132808003F
:10002C0012001E00F003031D1628F103031D1628F1
:02003C000800BA
:10003E0020008C018E0123008C018E017C3021006A
:10004E0099008030950024008C010130200098002A
:10005E00111063309700C030960021001114C0308B
:04006E008B000800FB
:10007200B7302000A4000030A5002C30A6000030CC
:0E008200A700F03021009E009D011D14080013
:1000900022000E128E120E138E130D138D130030CC
:1000A00020002106031D562800302006031D582875
:1000B00000302106031D5E2801302006031D642840
:1000C00021000E1222000E16003020002106031D12
:1000D0006B2802302006031D712821008E12220099
:1000E0008E16003020002106031D782803302006DC
:1000F000031D7E2821000E1322000E170030200061
:100100002106031D852804302006031D8B282100AD
:100110008E1322008E17003020002106031D922826
:1001200005302006031D982821000D1322000D170D
:10013000003020002106031D9F2806302006031DE5
:10014000A52821008D1322008D172000A00A031975
:10015000A10A8030F000803021067002031DB22811
:0E0160002008063C0318B628A001A1010800E3
:10016E00833021009D0520002C08F000F035F0357D
:10017E00700821009D0411209D149D1CC728C428C1
:10018E001C08F100F0011B08F0040030F104080017
:10019E002000F801F9011030FC00710DF80DF90D79
:1001AE007408F8027508031C750FF9020318E62887
:1001BE007408F80775080318750FF9070310F00D8A
:0801CE00F10DFC0BD428080020
:1001D6002000A001A101A201A3011F201530FB00F0
:1001E6004B30FC00BE30FD00FD0BF728FC0BF7285A
:1001F600FB0BF7280000392023000D168E150E156F
:10020600210011148B178D12203022008D064820F4
:100216000A30AC00B72070082000A8007108A900B9
:10022600AA01AB0129082B02031D1B2928082A0253
:1002360003183B290A30AC00B72020002808F00735
:100246002908F13D0230F4000030F500CF20700897
:10025600A8007108A9000630FC003030FD00FD0B37
:100266003229FC0B32290000AA0A0319AB0A152908
:0402760007293C29EF
:020000040001F9
:04000E00C21EC31F2C
:00000001FF
